:1000000002042253A87F51B271AA7199D2A47F0031
:100010007E7271BAEF6455703A7F017E7271BA8F49
:10002000087F027E7271BA8F26E4F527F528E42551
:1000300028FFE5273472FE71BA74132528F8A60745
:100040000528E52870020527C3940DE52794004094
:10005000DD80187F107E7271BAEF642060087D2009
:100060007F107E72715375E72080FEAD26AF085178
:100070001DE4F522F52375E1F6D2A5E52524FE6001
:1000800020240224F35024603F24F9607614700287
:100090002158147002217624F8700221A4800021D6
:1000A000931202F8EF6019052580D01202F8EF6074
:1000B0000F74132525F8E6B50804052580BD2193A6
:1000C000AD257F107E27219EE4F522F523752514AA
:1000D000F509F50AF50BF50C7520FF7521FEF527DE
:1000E000F528C3E5279472501675E1F6AF28AE27C0
:1000F00071C9E42528F52874023527F52780E351D6
:10010000F8017B51F8EF603BC3E50994724009E4C4
:10011000F522F523F525017BAD08AF0AAE09715331
:10012000050AE50A70020509E508250CF50CE43519
:100130000BF50BE4F522F52375E1F6752027752103
:1001400010017BAD25AF21AE20712D8F25E52560F7
:1001500002017B752515017B51F8EF6011E508F56B
:100160000F751000E4F522F523752516017BAD25EA
:100170007FFE7EFF802851F8EF601DE5084210E405
:10018000F522F523E50CB5100AE50BB50F0575252D
:100190001E017BE4F525017BAD257FFE7EFF712DE1
:1001A0008F25017B75E1F6E4F522F523F50DF50EBB
:1001B000F511F51243E78075E501F527F528C3E54C
:1001C00028950AE5279509502CE511F5E3E512F588
:1001D000E40512E5127002051175E64675E6B9AF41
:1001E000E2EF250EF50EE4350DF50D0528E5287036
:1001F000CD052780C9E4F5E553E77FE50CB50E187A
:10020000E50BB50D137F007E7271C97D207F107ED6
:1002100072715375E720017BE4F525017BED1460D5
:100220004B04600241B1E4F5AC43985075CBFFEF4D
:1002300024FA601514601714601914601B14601DF3
:100240002405701E75CAA0801C75CAB8801775CAAF
:10025000D0801275CADC800D75CAE8800875CAF4B2
:10026000800375CA70D2CDD2CCD2CA2275AC0175CA
:100270009850EF24FA601514601714601914601B6D
:1002800014601D2405701E759AF8801C759AFA80FA
:1002900017759AFC8012759AFD800D759AFE80087C
:1002A000759AFF8003759AF4859A9B759C30E4F5E6
:1002B000AC227593FF75920175804B7591E975922B
:1002C0004175905F7595FF75AC01E4F592F5AC75DD
:1002D000A08075B1CD75B23E75B00F75B30875AC21
:1002E00002F592F5AC75E8F775AC01F5B575AC03A0
:1002F000F592F5AC75F8FF227B007A007908AF26FD
:10030000E4FEEF146013047021E4F5AC30981BC2D6
:1003100098E59991457E01801175AC0130980BC22A
:1003200098E5999145E4F5AC7E01AF06228E298FC0
:100330002A8D2B75E1F6910C0523E5237002052229
:10034000D3952AE52295294007E4F52BF522F523DC
:10035000AF2B22AB07AA0643E78075E5028AE3EBE1
:10036000F5E48DE275E64675E6B953E77F2243E78B
:100370008075E504E4F5E38FE48DE275E64675E605
:10038000B9F5E553E77F228CE3EDF5E475E64675B4
:10039000E6B9E4F5E553E77F22E4F522F523F525F8
:1003A00075AC01C298F5ACC2982275C7D87D5C7F48
:1003B00040716E75E1E675BF0A22AD07AC0643E7F2
:1003C0008075E5017187AFE222AD07AC0643E78097
:1003D00075E50371872200000000000000000000A6
:1003E000000000000000000000000000000000000D
:1003F000000000000000000022C00775070CD507B0
:10040000FDD007000000000000000022C0077507B3
:1004100054D507FDD00722C0077507ACD507FDD01E
:100420000722787FE4F6D8FD9000007FFF7E07E486
:10043000F0A3DFFCDEFA78007FFFE4F208DFFC7552
:10044000812B020003BB010689828A83F0225002BD
:07045000F722BBFE01F322BD
:00000001FF
