:071F17007FC8121F1E7FC8E6
:081F1E00EF6004001F80F922AE
:041F5000E4F5C722CB
:101D2500AD07AC06ED4C601543E110121F17121FED
:0E1D3500177FC8121F1EED1D70EA1C80E722EA
:101EE400B2917BFF7A1E79E47D647C00E4FF021AE0
:011EF400F0FD
:1019E30075AC01539C7FC29FD29EE4F5AC75AC01EC
:1019F300439C10F5AC75AC01539CF7F5AC75AC0684
:101A030053A4FCF5AC75AC01D29CF5AC75AC0143A9
:101A13009C04F5AC75AC01759AD9759BD9F5AC22CC
:0600030043AD10D2AF2254
:101CBD0043E110121F501217B6121E41C291121994
:101CCD00E312000312146FE5E154F84406F5E14305
:031CDD00E12022E1
:06006B00121CBD021D4342
:101BD70000000000000000000000000000000000FE
:101BE70000000000000000000000000000000000EE
:081BF7000000000000000000E6
:101612004200000000420142000045014400000077
:1016220000004101490041014C0141014B004101CF
:021632004A006C
:0B0D9600900202EBF0A3EAF0A3E9F0EA
:100DA100900142E07002A3E0702F900202E0FBA3E9
:100DB100E0FAA3E0F9E41201B2900202E0FBA3E041
:100DC100FAA3E0F9900001E4F5F01202D1900003DA
:100DD100E4F5F01202D17FFF22900000E0FEA3E0D3
:100DE100FF900205EEF0A3EFF02401FFE43EFE7C4C
:100DF100007D4012024D900000ECF0A3EDF0900157
:100E010043E024FFF0900142E034FFF0900205E05E
:100E1100FEA3E090000275F00512034CEE75F0059B
:100E2100A42583F583E0FF900202E0FBA3E0FAA38F
:100E3100E0F9EF1201B2900205E0FEA3E0FF90009D
:100E41000375F00512034CEE75F005A42583F583B7
:100E5100E0FCA3E0FD900202E0FBA3E0FAA3E0F9CD
:100E6100900001EC8DF01202D190000575F005EFB4
:100E710012034CEE75F005A42583F583E0FFA3E092
:0B0E8100900003CF8FF01202D17F0120
:010E8C002243
:0B0F590090021CEBF0A3EAF0A3E9F00B
:100F6400C3900143E09440900142E0648094804047
:100F7400037FFF22900142E0FEA3E0FF900001E026
:100F84002FFF900000E03EFE7C007D4012024D9059
:100F9400021CE0FBA3E0FAA3E0F912016CFF90004D
:100FA4000275F005ED12034CEC75F005A42583F5EC
:100FB40083EFF0900001120299FFAEF090000375E8
:100FC400F005ED12034CEC75F005A42583F583EED2
:100FD400F0A3EFF0900003120299FFAEF090000529
:100FE40075F005ED12034CEC75F005A42583F5832B
:100FF400EEF0A3EFF0900143E004F070069001429C
:05100400E004F07F0094
:0110090022C4
:101C740012016C701D900001120185B4FF149000D4
:101C840002120185700C900003120185B4FF037FDA
:051C940000227F012287
:0B068A00900207EFF0A3EDF0A3EBF0EF
:10069500780B7C027D017BFF7A1B79D77E007F0575
:1006A500120146900207E0FF7E007C037DE81201FF
:1006B500E6AC06AD07A3E075F064A42DFDEC35F0BE
:1006C500FCA3E075F00AA42DFFE5F03CFEA3E07C59
:1006D500002FFFEC3E900210F0A3EFF0E4A3F090A2
:0C06E5000212E0FFC39404400302089AD4
:1006F100EF14601A1460271460342403703E9002D2
:10070100137401F0A37401F0A3746AF0802E9002B7
:10071100137401F0A37401F0A3746EF0801E9002B3
:10072100137401F0A37401F0A37472F0800E9002AF
:10073100137401F0A37401F0A37476F0900213E036
:10074100FBA3E0FAA3E0F990000112018575F064C2
:10075100A4FDACF0C004C00512016CFF7E007C0357
:100761007DE81201E6D0E02FFDD0E03EFC900002D2
:1007710012018575F00AA42DFFE5F03CFE900003FF
:100781001201857C002FFFEC3EAD07FC121C74EFBB
:100791006012900210E06C7003A3E06D6003020828
:0407A1009102086257
:1007A500900207E0FF7E007C037DE81201E6AC06BF
:1007B500AD07A3E075F064A42DFDEC35F0FCA3E0D6
:1007C500F975F00AA42DFFE5F03CFEA3E0FD7A00E3
:1007D5002FFFEA3E900216F0A3EFF0E4A3F0A3F09A
:0E07E50030A30B900216E0FFA3E0A3CF8031FB
:1007F300900207E075F00AA4FFA3E02FFF90021A0E
:10080300F0E975F00AA42DA3F0FBEF24FFFFE43415
:10081300FFFE7C007D0A1201E6EB2FFFEC3E900207
:0508230018F0A3EFF046
:10082800900219E024FFFD900218E034FFFCEDAEC1
:10083800047802CEC313CE13D8F9FFED540304FE97
:100848009001BCE06F7042900212E02401FDE43395
:10085800FCAF06EF6D7001EC702F90021F74FFF073
:10086800A3F0FBE4FD7FAA120E8D90020B7403F037
:10087800900212E02401FEE43390020CF0A3CEF0C3
:090888007B017A02790B020F5981
:09089100900212E004F00206E4FA
:01089A00223B
:10089B00900207EFF09001BCE0FF90020AE06F605E
:0408AB0003020A99A1
:1008AF00EDFFEBA3CFF0A3EFF0900207E064017030
:1008BF006C90020BE0FAA3E0FB7C037DE8FFAE0235
:1008CF001201F8900154EFF07C037DE8AF03AE0204
:1008DF001201F87E007F64CFCDCFCECCCE1201F8BF
:1008EF00A3EFF090020BA3E07C007D64FFAE021239
:1008FF0001F87E007F0ACFCDCFCECCCE1201F8907B
:10090F000156EFF07C007D0AAF03AE021201F8A38F
:10091F00EDF07B017A0179547F00020A849002077F
:10092F00E06402706C90020BE0FAA3E0FB7C037DA5
:10093F00E8FFAE021201F8900158EFF07C037DE85A
:10094F00AF03AE021201F87E007F64CFCDCFCECCC5
:10095F00CE1201F8A3EFF090020BA3E07C007D64B0
:10096F00FFAE021201F87E007F0ACFCDCFCECCCEE4
:10097F001201F890015AEFF07C007D0AAF03AE022E
:10098F001201F8A3EDF07B017A0179587F04020A76
:10099F0084900207E06403706B90020BE0FAA3E00F
:1009AF00FB7C037DE8FFAE021201F890015CEFF0D3
:1009BF007C037DE8AF03AE021201F87E007F64CFA7
:1009CF00CDCFCECCCE1201F8A3EFF090020BA3E067
:1009DF007C007D64FFAE021201F87E007F0ACFCD4E
:1009EF00CFCECCCE1201F890015EEFF07C007D0AE5
:1009FF00AF03AE021201F8A3EDF07B017A01795C2F
:100A0F007F088071900207E06404706E90020BE023
:100A1F00FAA3E0FB7C037DE8FFAE021201F8900120
:100A2F0060EFF07C037DE8AF03AE021201F87E00A9
:100A3F007F64CFCDCFCECCCE1201F8A3EFF09002D2
:100A4F000BA3E07C007D64FFAE021201F87E007FF5
:100A5F000ACFCDCFCECCCE1201F8900162EFF07C51
:100A6F00007D0AAF03AE021201F8A3EDF07B017A0D
:100A7F000179607F127E72120C3090021F74FFF0AA
:0A0A8F00A3F0FBE4FD7FAA120E8D18
:010A9900223A
:101E830090017BE0B401037403F090017BE0B402A2
:041E930002E4F02253
:101E970090017AE0B401037403F090017AE0B40290
:041EA70002E4F0223F
:0A1F3500EF6006121E83121E9722B1
:0A0A9A009001BCE06D6003020C2720
:100AA400900209F0EFB401057401F08026EFB4025E
:100AB400089002097402F0801AEFB4030890020946
:100AC4007403F0800EEF64046003020C27900209A3
:100AD4007404F0900209E024FE601D14602A14607E
:100AE4003724036003020C2790020C7401F0A374F2
:100AF40001F0A3746AF0802E90020C7401F0A374C8
:100B040001F0A3746EF0801E90020C7401F0A374C3
:100B140001F0A37472F0800E90020C7401F0A374BF
:100B240001F0A37476F090020CE0FBA3E0FAA3E0DA
:070B3400F9121C74EF605977
:100B3B0090020CE0FBA3E0FAA3E0F9900001120194
:100B4B008575F064A4FDACF0C004C00512016CFF08
:100B5B007E007C037DE81201E6D0E02FFDD0E03E65
:100B6B00FC90000212018575F00AA42DFFE5F03C04
:100B7B00FE9000031201857C002FFFEC3E90020FCC
:070B8B00F0A3EFF090020F50
:100B9200801F9001BCE075F004A4FF900209E07C84
:100BA200002FFEEC35F0A3F0A3CEF030A325900287
:100BB2000AE0FAA3E0FB7D64FFAE021201F89002A4
:100BC20007EFF07C007D64AF03AE021201F8A3EDE3
:030BD200F0803977
:100BD50090020BE024FFFB90020AE034FFFA7C0050
:100BE5007D0AAF03FE1201F8EF0490020FF07C00BE
:100BF5007D0AAF03AE021201F8ED04FFA3F09002E7
:090C05000FE0900207F0A3EFF0EC
:100C0E00900209E0FD900207E0FBA3E090021FF0C6
:090C1E00A374FFF07FB7120E8DE4
:010C270022AA
:051CE000900209EFF085
:101CE50090023EA3A3E0FEA3E0FF12194A12190CCD
:0D1CF500900209E0FD7C0012024DED04FF9D
:011D020022BE
:101B220090021F74FFF0A3F0FB7D017FB9120E8DAE
:061B3200900149E0601A79
:101B380014F07F32121CE0900208EFF0FD7C007B6D
:0A1B4800FF7A1B79227F03121AF0C6
:011B52002270
:071C4E0090017AE0B4031ECF
:101C55009001497401F07F32121CE0900207EFF009
:0E1C6500FD7C007BFF7A1B79227F03121AF0B0
:011C7300224E
:1012AF0090020A7401F0A37402F0A37403F0A37404
:1012BF0001F0A37402F0A37404F0A37401F0A374FB
:1012CF0002F0A37405F0A37401F0A37402F0A374E9
:1012DF0006F07B017A0279021203C3EF64017056A4
:1012EF00900202E02456604624F9602024FB60300F
:1012FF0024FE60372408703E900203E0FFA3E0FD58
:10130F00A3E0FBA3E090020AF002068A900203E03A
:10131F00FFA3E0FDA3E0FBA3E090020AF002089B0D
:10132F00900203E0FFA3E0FD020A9A021C4E900216
:06133F0003E0FF121F3560
:011345002285
:1013DC0078027C027D017BFF7A1B79DC7E007F0525
:1013EC001201462081047F0080027F01900207EFEA
:1013FC00F06401702C90017BE0B4032590014AE06D
:10140C00600AE4FF121EBFE490014AF090014C7494
:10141C0001F09002027405F07B017A027902020F4E
:10142C0059900207E0702490014CE0B4011D90012A
:10143C007BE0701790014AE0702804F07BFF7A196A
:10144C0079597D0A7C00E4FF021AF0900207E0B49F
:10145C00011090014AE0600AE4FF121EBFE4900103
:02146C004AF044
:01146E00225B
:1019590078087C027D017BFF7A1B79E17E007F0597
:1019690012014690014AE0602820812090014CE054
:10197900B4011990017BE0701390014CF0900208BA
:101989007404F07B017A027908120F59E490014A34
:06199900F0E4FF021EBF96
:101B530078027C027D017BFF7A1B79E67E007F059C
:101B630012014620A51A900145E0701490020274F8
:101B730006F0A3E4F0A304F0FB7A027902120F59F2
:011B8300223F
:101A570078027C027D017BFF7A1B79EB7E007F0594
:101A670012014620A61C900146E0701690020274EF
:101A770006F0A3E4F0A37402F07B017A0279021264
:021A87000F59F5
:011A8900223A
:101A8A0078027C027D017BFF7A1B79F07E007F055C
:101A9A0012014620A71C900147E0701690020274BA
:101AAA0006F0A3E4F0A37403F07B017A0279021230
:021ABA000F59C2
:011ABC002207
:101ABD0078027C027D017BFF7A1B79F57E007F0524
:101ACD0012014620B21C900148E07016900202747B
:101ADD0006F0A3E4F0A37404F07B017A02790212FC
:021AED000F598F
:011AEF0022D4
:1016860078027C027D017BFF7A1B79FA7E007F055A
:1016960012014690017AE06403705130A52E30A6FF
:1016A6002B30A72830B2257F017E04900145E4F057
:1016B600A3DEFC7E007F059002027407F07B017AB0
:1016C600027902120F5990017A7402F030A505E4EE
:1016D600900145F030A605E4900146F030A705E4F8
:0C16E600900147F030B205E4900148F09C
:0116F20022D5
:0F1F2600121B53121A57121A8A121ABD0216866C
:1016F300E4FF74542FF582E43401F583E0FE746A49
:101703002FF582E43401F583EEF074582FF582E46B
:101713003401F583E0FE746E2FF582E43401F58322
:10172300EEF0745C2FF582E43401F583E0FE74720D
:101733002FF582E43401F583EEF074602FF582E433
:101743003401F583E0FE74762FF582E43401F583EA
:07175300EEF00FEFB4049B60
:01175A00226C
:10121600E4900202F0121589900168E0FF90020244
:10122600F090014DE0FEEF6E6076E4900154F0A37D
:1012360074FFF0E4A3F0A374FFF0E4A3F0A374FF3B
:10124600F0E4A3F0A374FFF0E4A3F0A374FFF0E4CA
:10125600A3F0A374FFF0E4A3F0A374FFF0E4A3F0FB
:10126600A374FFF07B017A0179547F007E72120C21
:10127600307B017A0179587F047E72120C307B0133
:101286007A01795C7F087E72120C307B017A0179D3
:10129600607F127E72120C30900202E090014DF0D7
:0812A600900202E09001BCF08F
:0112AE00221D
:101ED2001212AF1213DC121F261210BB1216F302DB
:021EE2001216D6
:031F5400021A234B
:101EAB0074442FF582E43401F583E0B401037F0021
:041EBB00227F01225F
:10134600900169E0D394004068E014F090017AE0DF
:10135600B4010E90021F74FFF0A3F0FBFD7FB48072
:101366001390017AE0B4020F90021F74FFF0A3F00D
:10137600FBFD7FB5120E8D90017BE0B4010E90024D
:101386001F74FFF0A3F0FBFD7FB2801390017BE09A
:10139600B4020F90021F74FFF0A3F0FBFD7FB3129F
:1013A6000E8D7BFF7A1379467D507C007F02021AF0
:1013B600F090017AE0FF64016004EFB40205E49066
:1013C600017AF090017BE0FF64016004EFB402054E
:0613D600E490017BF0220F
:101B840090017B7401F09001697403F090021F745A
:101B9400FFF0A3F0FBFD7FB2120E8D7BFF7A137969
:0A1BA400467D507C007F02021AF01B
:101BAE0090017B7402F090016904F090021F74FFA3
:101BBE00F0A3F0FBFD7FB3120E8D7BFF7A137946F7
:091BCE007D507C007F02021AF038
:10199F00AE0790017AE06006121EABEF603574441B
:1019AF002EF582E43401F5837401F090017AF09002
:1019BF0001697403F090021F74FFF0A3F0FBFD7F29
:1019CF00B4120E8D7BFF7A1379467D507C007F0217
:0419DF00121AF022C6
:101C99009001697403F090021F74FFF0A3F0FBFD3B
:101CA9007FB5120E8D7BFF7A1379467D507C007FBC
:041CB90002021AF019
:061F3F00900205EFF02204
:061F4500900205EFF022FE
:10100A00900202EBF0A3EAF0A3E9F0900202E0FBFF
:10101A00A3E0FAA3E0F912016C24FEB4080040032D
:10102A000210BA90103B75F003A4C58325F0C5835E
:10103A007302105302105D021072021075021078CA
:10104A0002108D0210900210A5900001120299FF61
:10105A00021E2A900202E0FBA3E0FAA3E0F9900044
:10106A0001120299FF021F54021B84021BAE900256
:10107A0002E0FBA3E0FAA3E0F9900001120299FF53
:10108A0002199F021C99900202E0FBA3E0FAA3E076
:10109A00F9900001120299FF021F3F900202E0FB41
:1010AA00A3E0FAA3E0F9900001120299FF121F458A
:0110BA002213
:101D430043E110121ED27B017A0179FD120D96EF49
:0D1D530060EE7B017A0179FD12100A80E339
:10163400410168004101BC0041014D0046014E00DA
:10164400000000000054015400FF00FF00FF00FFF1
:1016540000FF00FF00FF00FF00FF00FF53016900CF
:101664000000000000000000000000000000000076
:02167400000074
:10158900E4FF309403FE80027E01EEC4333333540A
:10159900804FFF3095047E0080027E01EEC4333314
:1015A90054C04FFF3096047E0080027E01EEC433A2
:1015B90054E04FFF3097047E0080027E01EEC45450
:1015C900F04FFF30A0047E0080027E01EE333333FA
:1015D90054F84FFF30A1047E0080027E01EE25E021
:1015E90025E04FFF30A2047E0080027E01EE25E057
:1015F9004FFF30A3047E0080027E01EF4E54FEFFB0
:08160900121DE2900168EFF0F0
:0116110022B6
:101DE200E4FEFDEE25E0FEEF54014EFEEFC313FFCD
:071DF2000DEDB408EEAF0691
:011DF90022C7
:101EF500C2B3C2B7C2B4C2E8C2B5C2E9C2B6C2EA89
:011F050022B9
:101A2300EF24FE601014601314601624037016D2A2
:101A3300B3D2B78010D2B4D2E8800AD2B5D2E9804B
:101A430004D2B6D2EA7BFF7A1E79F57D647C007FEF
:041A530001021AF082
:101D6000EF24FE600D14600D14600D2403700BD27F
:0B1D70009422D29522D29622D2972214
:101C2700EF24FE6010146010146010146010240478
:101C37007014C29422C29522C29622C29722C294DD
:071C4700C295C296C297226C
:1017B6005393FD75AC045392FDE4F5ACD28153917D
:1017C6000B53920BD292D294D295D296D29753952E
:1017D6001075AC01539210F5ACD2A5D2A6D2A7D201
:1017E600A0D2A1D2A2D2A343B10443B204D2B2433F
:1017F600910A5392F553B10743B2F843B30775AC58
:09180600025392F8F5AC021EF544
:041865007B017E7213
:101869009001FDEEF0A3EFF0A3EBF0A3EAF0A3E9FA
:01187900F07E
:10187A00E4A3F0900202E0FDFF7E009001FDE0FA91
:10188A00A3E0FB2FEE3AFFED2BFD121E129001FF93
:10189A00E0FBA3E0FAA3E0F9A3E0F582758300EF89
:0F18AA001201C4900202E004F0E0C3940540C4B0
:0118B900220C
:10116B00E4900213F0900213E0FCC39405400302D9
:10117B001215E0FD2400E43472FFED2454F582E4F3
:10118B003401F583E0FB121D96900213E0FD24045D
:10119B00E43472FFED2404FDE02458F582E43401BD
:1011AB00F583E0FB121D96900213E0FD2408E43456
:1011BB0072FFED2408FDE0245CF582E43401F58335
:1011CB00E0FB121D96900213E0FD2412E43472FF33
:1011DB00ED2412FDE02460F582E43401F583E0FB9D
:1011EB00121D96900213E0FD2416E43472FFED24D9
:1011FB0016FDE02464F582E43401F583E0FB121D57
:0A120B0096900213E004F002117047
:0112150022B6
:080C28007B017A0179547E7210
:100C300090020DEEF0A3EFF0A3EBF0A3EAF0A3E92E
:010C4000F0C3
:100C41007F03121E57900212EFF090020DE0FF3366
:100C510095E0AD077F03121DFA90020DE0FCA3E0C1
:100C6100FDECFF3395E0ED121E6D90020DE0FEA349
:100C7100E08EF01203580C8F72000CC272040CF556
:100C810072080D2772120D59721600000D8990021B
:100C91000FE0FBA3E0FAA3E0F912016C900154F01C
:100CA100900001120185900155F09000021201851A
:100CB100900156F0900003120185900157F0020D4A
:100CC1008990020FE0FBA3E0FAA3E0F912016C9016
:100CD1000158F0900001120185900159F090000235
:100CE10012018590015AF090000312018590015B79
:100CF100F0020D8990020FE0FBA3E0FAA3E0F912E4
:100D0100016C90015CF090000112018590015DF091
:100D110090000212018590015EF09000031201859E
:100D210090015FF0806290020FE0FBA3E0FAA3E084
:100D3100F912016C900160F090000112018590019F
:100D410061F0900002120185900162F0900003129F
:100D51000185900163F0803090020FE0FBA3E0FA7F
:100D6100A3E0F912016C900164F090000112018579
:100D7100900165F0900002120185900166F09000EB
:100D810003120185900167F012116B900212E0FDD0
:050D91007F03021DFAC2
:10146F007A0179647F16121865900164E0700EA3FB
:10147F00E0B4FF09A3E07005A3E0F46041E490013C
:10148F0054F0A374FFF0E4A3F0A374FFF07F0012F5
:10149F000C287F04120C287B017A0179547F087E77
:1014AF0072120C307B017A0179547F127E72120C0A
:1014BF00307B017A0179547F167E72120C307A01DB
:1014CF0079547F001218657B017A0179587F047E69
:1014DF00721218697B017A01795C7F087E7212188B
:0E14EF00697B017A0179607F127E72021869B2
:101D7B0090014FE0FF24BDF582E43401F583E0FED2
:0A1D8B00EF04543F90014FF0AF0643
:011D9500222B
:101DB000900152E0FE247CF582E43401F583EFF0DB
:091DC000EE04543F900152F022A0
:0300730002180F61
:10180F00C0E0C083C082C0D075D000C006C007C082
:10181F00AC75AC01309926C29990014FE0FF900151
:10182F004EE0B5070D900151E4F090014EF0A3F09A
:10183F00800B121D7B8F999001517401F030980726
:10184F00C298AF99121DB0D0ACD007D006D0D0D06F
:06185F0082D083D0E032CC
:101DC90090014EE0FE24BDF582E43401F583EFF085
:091DD900EE04543F90014EF0228B
:101F0600121DC9900151E0700775AC01D299F5AC6C
:011F160022A8
:08175B007B017A0279187F017D
:0D176300900222EBF0A3EAF0A3E9F0AC073E
:10177000E4FDEDC39C503C900153E0FF900152E02A
:101780006F602A747C2FF582E43401F583E0FF90CA
:101790000222E0FBA3E0FAA3E0F98D82758300EF5B
:1017A0001201C4900153E004543FF080037F0022F3
:0517B0000D80BF7F0168
:0117B5002211
:020E8D00AC07B0
:100E8F007A03E4900221F0EDF460060AE4A3F08007
:100E9F0007E4FD90022204F0EBB4FF04ECB4B708B2
:100EAF000AE4900223F08007E4FB90022304F09001
:100EBF00021FE0B4FF04ECB4B7080AE4900224F078
:100ECF00800AE490021FF090022404F0900220E0C8
:100EDF00F460080AE4900225F0800AE4900220F002
:100EEF0090022504F0EA2C2D2BFF90021FE02FFF1C
:100EFF00A3E02FA3F07FA0121F06AF02121F06AFB1
:100F0F0004121F06900222E07005AF05121F069013
:100F1F000223E07005AF03121F06900224E0700851
:100F2F0090021FE0FF121F06900225E0700890024A
:100F3F0020E0FF121F06900221E0FF121F067FF034
:0A0F4F00121F06EA2402FF021F062B
:0B03C300900207EBF0A3EAF0A3E9F0C2
:1003CE00E4900216F0A3F012175BEF600B90021888
:1003DE00E064A060067FFF227FFF227F0A7E00126C
:1003EE001D2512175BEF70037FFF22900218E0901D
:1003FE000216F07F0A7E00121D25900216E0FF7B8A
:10040E00017A027918121763EF70037FFF229002B0
:10041E0016E0FE2417F582E43402F583E064F06002
:10042E00037FFF22EE24FC60461470030204C01406
:10043E0070030205271470030205B2240460030240
:10044E00066E900218E0FF900207E0FBA3E0FAA30D
:10045E00E0F9EF1201B2900207E0FBA3E0FAA3E08D
:10046E00F912016CFF900216E02FA3F002066E90B7
:10047E000218E0FF900207E0FBA3E0FAA3E0F9EF19
:10048E001201B2900219E0FF90020AE0FBA3E0FA1B
:10049E00A3E0F9EF1201B2900207E0FBA3E0FAA38A
:1004AE00E0F912016CFF900216E02FFF90020A0293
:1004BE00065E900218E0FF900207E0FBA3E0FAA3AD
:1004CE00E0F9EF1201B2900219E0FF90020AE0FB90
:1004DE00A3E0FAA3E0F9EF1201B290021AE0FF9046
:1004EE00020DE0FBA3E0FAA3E0F9EF1201B29002D5
:1004FE0007E0FBA3E0FAA3E0F912016CFF900216ED
:10050E00E02FFF90020AE0FBA3E0FAA3E0F912014C
:10051E006C2FFF90020D02065E900218E0FF900213
:10052E0007E0FBA3E0FAA3E0F9EF1201B290021983
:10053E00E0FF90020AE0FBA3E0FAA3E0F9EF12015C
:10054E00B290021AE0FF90020DE0FBA3E0FAA3E0E6
:10055E00F9EF1201B290021BE0FF900210E0FBA334
:10056E00E0FAA3E0F9EF1201B2900207E0FBA3E07C
:10057E00FAA3E0F912016CFF900216E02FFF900231
:10058E000AE0FBA3E0FAA3E0F912016C2FFF900240
:10059E000DE0FBA3E0FAA3E0F912016C2FFF90022D
:1005AE001002065E900218E0FF900207E0FBA3E047
:1005BE00FAA3E0F9EF1201B2900219E0FF90020ADD
:1005CE00E0FBA3E0FAA3E0F9EF1201B290021AE009
:1005DE00FF90020DE0FBA3E0FAA3E0F9EF1201B2E7
:1005EE0090021BE0FF900210E0FBA3E0FAA3E0F9FB
:1005FE00EF1201B290021CE0FF900213E0FBA3E0A9
:10060E00FAA3E0F9EF1201B2900207E0FBA3E0FAC1
:10061E00A3E0F912016CFF900216E02FFF90020A80
:10062E00E0FBA3E0FAA3E0F912016C2FFF90020D9C
:10063E00E0FBA3E0FAA3E0F912016C2FFF90021089
:10064E00E0FBA3E0FAA3E0F912016C2FFF90021376
:10065E00E0FBA3E0FAA3E0F912016C2F900217F071
:10066E00900216E02416F582E43402F583E0FF9042
:0B067E000217E06F60037FFF227F0186
:01068900224E
:051F4B00000000000091
:0F1676004102260044023E00000001410227000D
:101D0300438901C3E49FFFE49E900244F0A3EFF0F4
:101D1300900244E0FCA3E0FDECF58C8D8AD2A9D2BD
:021D23008C2210
:03000B0002000EE2
:10000E00C0E0C083C082C0D075D000C002C003C0A3
:03001E0005C00713
:10002100ADAC900244E0FAA3E0FBEAF58C8B8A9038
:100031000242E4F0A304F090023CE07002A3E070FD
:1000410014900226E004F0C3940A4009E4F09002FF
:090051003CF0A304F0AF058FACF4
:10005A00D007D005D003D002D0D0D082D083D0E050
:01006A003263
:101E41007FE87E03121D037E007F057D007B017A02
:061E510002792802038B58
:101AF000900209EFF0AF05E0FD75F005A42428F58C
:101B000082E43402F583ECF0A3EFF0ED75F005A468
:101B1000242AF582E43402F583EBF0A3EAF0A3E98A
:021B2000F022B1
:101EBF00EF75F005A42428F582E43402F583E4F0ED
:031ECF00A3F0225B
:1018BA00900242E07002A3E06047E4900242F0A383
:1018CA00F074FFFFFEFDFC90023EE0F8A3E0F9A3EE
:1018DA00E0FAA3E0FBC31202FE90023E501CE0FCB9
:1018EA00A3E0FDA3E0FEA3E02401FFE43EFEE43D05
:1018FA00FDE43CFC90023E02030F12031B000000B1
:02190A000122B8
:1010BB0078037C027D017BFF7A1F794B7E007F05D5
:1010CB001201461218BA90023CE07002A3E07003C2
:1010DB0002116AE490023CF0A3F0900227E004F0C6
:1010EB00D3940A4005E4F075E1F6E4900202F09027
:1010FB000202E0FFC394045066EF75F005A42428A8
:10110B00F582E43402F583E0FEA3E04E60499002E1
:10111B0002E075F005A42428F582E43402F583740B
:10112B00FFF5F0120283EF75F005A42428F582E495
:10113B003402F583E0FEA3E04E701C9002037402B0
:10114B00F0900202E0FF900204E4F0A3EFF07B01C9
:0F115B007A027903120F59900202E004F080909B
:01116A002262
:101E2A00EF75F005A4242AF582E43402F583A3E0D1
:071E3A00FAA3E0F9020385A1
:101BFF00900242E0FDA3E090024ACDF0A3EDF090F9
:101C0F00024BE02FFD90024AE03EFC900242E0B50D
:071C1F0004EDA3E0B505E8A8
:011C2600229B
:101DFA00E4F5E38FE4AF058FE275E50475E78075D6
:081E0A00E64675E6B9F5E72292
:101E5700E4F5E38FE475E50575E78075E64675E615
:051E6700B9F5E7AFE250
:011E6C002253
:101E6D008FE3AF058FE475E50375E78075E646757D
:061E7D00E6B9E4F5E722DE
:101D96008FE3AF058FE4AF038FE275E50275E78049
:0A1DA60075E64675E6B9E4F5E7229C
:101E12008FE3AF058FE475E50175E78075E64675DA
:071E2200E6B9E4F5E7AFE2C9
:011E29002296
:030000000214FDEA
:0C14FD00787FE4F6D8FD758107021544E5
:10007600E709F608DFFA8046E709F208DFFA803E6C
:1000860088828C83E709F0A3DFFA8032E309F60859
:10009600DFFA8078E309F208DFFA807088828C83C1
:1000A600E309F0A3DFFA806489828A83E0A3F60875
:1000B600DFFA805889828A83E0A3F208DFFA804C4F
:1000C60080D280FA80C680D4806980F28033801026
:1000D60080A680EA809A80A880DA80E280CA80338F
:1000E60089828A83ECFAE493A3C8C582C8CCC58307
:1000F600CCF0A3C8C582C8CCC583CCDFE9DEE780D7
:100106000D89828A83E493A3F608DFF9ECFAA9F055
:10011600EDFB2289828A83ECFAE0A3C8C582C8CCAB
:10012600C583CCF0A3C8C582C8CCC583CCDFEADEC4
:10013600E880DB89828A83E493A3F208DFF980CC26
:1001460088F0EF60010E4E60C388F0ED2402B4041F
:100156000050B9F582EB2402B4040050AF232345C6
:0601660082239000C67325
:10016C00BB010689828A83E0225002E722BBFE0291
:09017C00E32289828A83E49322C4
:10018500BB010CE58229F582E5833AF583E022502F
:1001950006E92582F8E622BBFE06E92582F8E22279
:0D01A500E58229F582E5833AF583E4932293
:1001B200BB010689828A83F0225002F722BBFE012C
:0201C200F32226
:1001C400F8BB010DE58229F582E5833AF583E8F071
:1001D400225006E92582C8F622BBFE05E92582C81D
:0201E400F22205
:1001E600EF8DF0A4A8F0CF8CF0A428CE8DF0A42E2D
:0201F600FE22E7
:1001F800BC000BBE0029EF8DF084FFADF022E4CCEB
:10020800F875F008EF2FFFEE33FEEC33FCEE9DECB3
:10021800984005FCEE9DFE0FD5F0E9E4CEFD22EDF9
:10022800F8F5F0EE8420D21CFEADF075F008EF2F43
:10023800FFED33FD4007985006D5F0F222C398FD34
:050248000FD5F0EA22D1
:10024D00C2D5EC30E709B2D5E4C39DFDE49CFCEECC
:10025D0030E715B2D5E4C39FFFE49EFE1201F8C34B
:10026D00E49DFDE49CFC80031201F830D507C3E446
:06027D009FFFE49EFE223B
:10028300C5F0F8A3E028F0C5F0F8E5821582700206
:060293001583E038F022A3
:10029900BB0110E58229F582E5833AF583E0F5F0A3
:1002A900A3E0225009E92582F886F008E622BBFE80
:1002B9000AE92582F8E2F5F008E222E5832AF583C6
:0802C900E993F5F0A3E993228B
:1002D100F8BB0111E58229F582E5833AF583E8F05F
:1002E100E5F0A3F0225009E92582C8F608A6F0221C
:0D02F100BBFE09E92582C8F2E5F008F22203
:1002FE00EB9FF5F0EA9E42F0E99D42F0E89C45F056
:01030E0022CC
:0C030F00ECF0A3EDF0A3EEF0A3EFF02261
:10031B00A8828583F0D083D082120332120332126B
:10032B000332120332E473E493A3C583C5F0C58390
:10033B00C8C582C8F0A3C583C5F0C583C8C582C82C
:01034B00228F
:0C034C00A42582F582E5F03583F58322BC
:10035800D083D082F8E4937012740193700DA3A334
:1003680093F8740193F5828883E473740293B5F06B
:0D037800067403936860E9A3A3A3A380D8D3
:060385008A838982E47303
:10190C009002461203B77810EC4D4E4F70047CA534
:10191C007DA5C3EC13FCED13FDEE13FEEF13FF508E
:10192C0010EC64CCFCED644CFDEE644EFEEF64CE2A
:10193C00FFD8DF90024612030FEE547FFE22900276
:0D194C0046EEF0EFA3F0A374A5F0A3F02287
:10038B00EF4E6012EF60010EEDBB010B89828A8389
:10039B00F0A3DFFCDEFA2289F05007F709DFFCA996
:0C03AB00F022BBFEFCF309DFFCA9F022ED
:1015090002006BE493A3F8E493A34003F68001F28D
:1015190008DFF48029E493A3F85407240CC8C333E3
:10152900C4540F4420C8834004F456800146F6DFB2
:10153900E4800B0102040810204080901612E47E1A
:10154900019360BCA3FF543F30E509541FFEE493A7
:10155900A360010ECF54C025E060A840B8E493A36E
:10156900FAE493A3F8E493A3C8C582C8CAC583CA99
:10157900F0A3C8C582C8CAC583CADFE9DEE780BE51
:011685000064
:0C03B700E0FCA3E0FDA3E0FEA3E0FF22B9
:00000001FF
